{
  "address": "0xC3f2de4eCBF8530Ca32615Df656109EaFA621a16",
  "abi": [
    {
      "inputs": [
        {
          "internalType": "address",
          "name": "ownershipAdd",
          "type": "address"
        },
        {
          "internalType": "string",
          "name": "certificate",
          "type": "string"
        },
        {
          "internalType": "string",
          "name": "signingDomain",
          "type": "string"
        },
        {
          "internalType": "string",
          "name": "signatureVersion",
          "type": "string"
        }
      ],
      "stateMutability": "nonpayable",
      "type": "constructor"
    },
    {
      "inputs": [
        {
          "internalType": "address",
          "name": "",
          "type": "address"
        }
      ],
      "name": "ALREADY_REGISTERED",
      "type": "error"
    },
    {
      "inputs": [
        {
          "internalType": "address",
          "name": "",
          "type": "address"
        }
      ],
      "name": "DOES_NOT_EXIST",
      "type": "error"
    },
    {
      "inputs": [],
      "name": "ECDSAInvalidSignature",
      "type": "error"
    },
    {
      "inputs": [
        {
          "internalType": "uint256",
          "name": "length",
          "type": "uint256"
        }
      ],
      "name": "ECDSAInvalidSignatureLength",
      "type": "error"
    },
    {
      "inputs": [
        {
          "internalType": "bytes32",
          "name": "s",
          "type": "bytes32"
        }
      ],
      "name": "ECDSAInvalidSignatureS",
      "type": "error"
    },
    {
      "inputs": [],
      "name": "INVALID_SIGNATURE",
      "type": "error"
    },
    {
      "inputs": [],
      "name": "InvalidShortString",
      "type": "error"
    },
    {
      "inputs": [
        {
          "internalType": "string",
          "name": "",
          "type": "string"
        }
      ],
      "name": "NAME_TOO_SHORT",
      "type": "error"
    },
    {
      "inputs": [
        {
          "internalType": "address",
          "name": "",
          "type": "address"
        }
      ],
      "name": "ONLY_OWNER",
      "type": "error"
    },
    {
      "inputs": [
        {
          "internalType": "string",
          "name": "str",
          "type": "string"
        }
      ],
      "name": "StringTooLong",
      "type": "error"
    },
    {
      "inputs": [
        {
          "internalType": "string",
          "name": "",
          "type": "string"
        }
      ],
      "name": "UNAVAILABLE_USERNAME",
      "type": "error"
    },
    {
      "anonymous": false,
      "inputs": [
        {
          "indexed": true,
          "internalType": "address",
          "name": "contractAddress",
          "type": "address"
        },
        {
          "indexed": true,
          "internalType": "address",
          "name": "owner",
          "type": "address"
        }
      ],
      "name": "AuthenticityCreated",
      "type": "event"
    },
    {
      "anonymous": false,
      "inputs": [],
      "name": "EIP712DomainChanged",
      "type": "event"
    },
    {
      "anonymous": false,
      "inputs": [
        {
          "indexed": true,
          "internalType": "address",
          "name": "manufacturerAddress",
          "type": "address"
        },
        {
          "indexed": false,
          "internalType": "string",
          "name": "username",
          "type": "string"
        }
      ],
      "name": "ManufacturerRegistered",
      "type": "event"
    },
    {
      "inputs": [],
      "name": "eip712Domain",
      "outputs": [
        {
          "internalType": "bytes1",
          "name": "fields",
          "type": "bytes1"
        },
        {
          "internalType": "string",
          "name": "name",
          "type": "string"
        },
        {
          "internalType": "string",
          "name": "version",
          "type": "string"
        },
        {
          "internalType": "uint256",
          "name": "chainId",
          "type": "uint256"
        },
        {
          "internalType": "address",
          "name": "verifyingContract",
          "type": "address"
        },
        {
          "internalType": "bytes32",
          "name": "salt",
          "type": "bytes32"
        },
        {
          "internalType": "uint256[]",
          "name": "extensions",
          "type": "uint256[]"
        }
      ],
      "stateMutability": "view",
      "type": "function"
    },
    {
      "inputs": [
        {
          "internalType": "address",
          "name": "manufacturerAddress",
          "type": "address"
        }
      ],
      "name": "getManufacturer",
      "outputs": [
        {
          "components": [
            {
              "internalType": "string",
              "name": "name",
              "type": "string"
            },
            {
              "internalType": "address",
              "name": "manufacturerAddress",
              "type": "address"
            }
          ],
          "internalType": "struct ITrue.Manufacturer",
          "name": "",
          "type": "tuple"
        }
      ],
      "stateMutability": "view",
      "type": "function"
    },
    {
      "inputs": [
        {
          "internalType": "string",
          "name": "name",
          "type": "string"
        },
        {
          "internalType": "address",
          "name": "manufacturer",
          "type": "address"
        }
      ],
      "name": "manufacturerRegisters",
      "outputs": [],
      "stateMutability": "nonpayable",
      "type": "function"
    },
    {
      "inputs": [
        {
          "components": [
            {
              "internalType": "string",
              "name": "name",
              "type": "string"
            },
            {
              "internalType": "string",
              "name": "uniqueId",
              "type": "string"
            },
            {
              "internalType": "string",
              "name": "serial",
              "type": "string"
            },
            {
              "internalType": "uint256",
              "name": "date",
              "type": "uint256"
            },
            {
              "internalType": "address",
              "name": "owner",
              "type": "address"
            },
            {
              "internalType": "bytes32",
              "name": "metadataHash",
              "type": "bytes32"
            },
            {
              "internalType": "string[]",
              "name": "metadata",
              "type": "string[]"
            }
          ],
          "internalType": "struct ITrue.Certificate",
          "name": "certificate",
          "type": "tuple"
        },
        {
          "internalType": "bytes",
          "name": "signature",
          "type": "bytes"
        }
      ],
      "name": "userClaimOwnership",
      "outputs": [],
      "stateMutability": "nonpayable",
      "type": "function"
    },
    {
      "inputs": [
        {
          "components": [
            {
              "internalType": "string",
              "name": "name",
              "type": "string"
            },
            {
              "internalType": "string",
              "name": "uniqueId",
              "type": "string"
            },
            {
              "internalType": "string",
              "name": "serial",
              "type": "string"
            },
            {
              "internalType": "uint256",
              "name": "date",
              "type": "uint256"
            },
            {
              "internalType": "address",
              "name": "owner",
              "type": "address"
            },
            {
              "internalType": "bytes32",
              "name": "metadataHash",
              "type": "bytes32"
            },
            {
              "internalType": "string[]",
              "name": "metadata",
              "type": "string[]"
            }
          ],
          "internalType": "struct ITrue.Certificate",
          "name": "certificate",
          "type": "tuple"
        },
        {
          "internalType": "bytes",
          "name": "signature",
          "type": "bytes"
        }
      ],
      "name": "verifyAuthenticity",
      "outputs": [
        {
          "internalType": "bool",
          "name": "",
          "type": "bool"
        },
        {
          "internalType": "string",
          "name": "",
          "type": "string"
        }
      ],
      "stateMutability": "view",
      "type": "function"
    },
    {
      "inputs": [
        {
          "components": [
            {
              "internalType": "string",
              "name": "name",
              "type": "string"
            },
            {
              "internalType": "string",
              "name": "uniqueId",
              "type": "string"
            },
            {
              "internalType": "string",
              "name": "serial",
              "type": "string"
            },
            {
              "internalType": "uint256",
              "name": "date",
              "type": "uint256"
            },
            {
              "internalType": "address",
              "name": "owner",
              "type": "address"
            },
            {
              "internalType": "bytes32",
              "name": "metadataHash",
              "type": "bytes32"
            },
            {
              "internalType": "string[]",
              "name": "metadata",
              "type": "string[]"
            }
          ],
          "internalType": "struct ITrue.Certificate",
          "name": "certificate",
          "type": "tuple"
        },
        {
          "internalType": "bytes",
          "name": "signature",
          "type": "bytes"
        }
      ],
      "name": "verifySignature",
      "outputs": [
        {
          "internalType": "bool",
          "name": "",
          "type": "bool"
        }
      ],
      "stateMutability": "view",
      "type": "function"
    }
  ],
  "transactionHash": "0xda4b741279ac8a96be9559a9bb59f2cf7109aae20594a4503bdc286c389fad69",
  "args": [
    "0xE62B0E0F99584660825301Ce4B83be2771A1c6A2",
    "Certificate(string name,string uniqueId,string serial,uint256 date,address owner,bytes32 metadataHash)",
    "CertificateAuth",
    1
  ],
  "numDeployments": 2,
  "solcInputHash": "360fb70820192b18794bf3ec13c9b6bc",
  "bytecode": "0x6101c060405234801561001157600080fd5b5060405161195d38038061195d83398101604081905261003091610276565b818161003d826000610139565b6101205261004c816001610139565b61014052815160208084019190912060e052815190820120610100524660a0526100d960e05161010051604080517f8b73c3c69bb8fe3d512ecc4cf759cc79239f7b179b0ffacaa9a75d522b39400f60208201529081019290925260608201524660808201523060a082015260009060c00160405160208183030381529060405280519060200120905090565b60805250503060c08190526001600160a01b0385166101a0523361016081905284516020860120610180526040519091907ff98a8a1f8147bbd92544fd4ca87e57f554a8f90fd54ba43462e9e533598d5e1f90600090a3505050506104c9565b60006020835110156101555761014e8361016c565b9050610166565b8161016084826103b4565b5060ff90505b92915050565b600080829050601f815111156101a0578260405163305a27a960e01b81526004016101979190610472565b60405180910390fd5b80516101ab826104a5565b179392505050565b634e487b7160e01b600052604160045260246000fd5b60005b838110156101e45781810151838201526020016101cc565b50506000910152565b600082601f8301126101fe57600080fd5b81516001600160401b03811115610217576102176101b3565b604051601f8201601f19908116603f011681016001600160401b0381118282101715610245576102456101b3565b60405281815283820160200185101561025d57600080fd5b61026e8260208301602087016101c9565b949350505050565b6000806000806080858703121561028c57600080fd5b84516001600160a01b03811681146102a357600080fd5b60208601519094506001600160401b038111156102bf57600080fd5b6102cb878288016101ed565b604087015190945090506001600160401b038111156102e957600080fd5b6102f5878288016101ed565b606087015190935090506001600160401b0381111561031357600080fd5b61031f878288016101ed565b91505092959194509250565b600181811c9082168061033f57607f821691505b60208210810361035f57634e487b7160e01b600052602260045260246000fd5b50919050565b601f8211156103af57806000526020600020601f840160051c8101602085101561038c5750805b601f840160051c820191505b818110156103ac5760008155600101610398565b50505b505050565b81516001600160401b038111156103cd576103cd6101b3565b6103e1816103db845461032b565b84610365565b6020601f82116001811461041557600083156103fd5750848201515b600019600385901b1c1916600184901b1784556103ac565b600084815260208120601f198516915b828110156104455787850151825560209485019460019092019101610425565b50848210156104635786840151600019600387901b60f8161c191681555b50505050600190811b01905550565b60208152600082518060208401526104918160408501602087016101c9565b601f01601f19169190910160400192915050565b8051602080830151919081101561035f5760001960209190910360031b1b16919050565b60805160a05160c05160e05161010051610120516101405161016051610180516101a051611419610544600039600061027e015260006104e40152600061033e0152600061074c0152600061071a0152600061094e0152600061092601526000610881015260006108ab015260006108d501526114196000f3fe608060405234801561001057600080fd5b50600436106100625760003560e01c8063191bcef614610067578063449d9eea1461009057806384b0196e146100a5578063b78b6c42146100c0578063bc17da66146100d3578063bee997bd146100f6575b600080fd5b61007a610075366004610bfb565b610117565b6040516100879190610c63565b60405180910390f35b6100a361009e366004610e2a565b610245565b005b6100ad6102ed565b6040516100879796959493929190610f6a565b6100a36100ce366004611002565b610333565b6100e66100e1366004610e2a565b6104df565b6040519015158152602001610087565b610109610104366004610e2a565b610649565b604051610087929190611083565b6040805180820190915260608152600060208201526001600160a01b038281166000908152600260205260409020600101541661017757604051630c058aa360e31b81526001600160a01b03831660048201526024015b60405180910390fd5b6001600160a01b0382166000908152600260205260409081902081518083019092528054829082906101a8906110a6565b80601f01602080910402602001604051908101604052809291908181526020018280546101d4906110a6565b80156102215780601f106101f657610100808354040283529160200191610221565b820191906000526020600020905b81548152906001019060200180831161020457829003601f168201915b5050509183525050600191909101546001600160a01b031660209091015292915050565b61024f82826104df565b5060808201516001600160a01b039081166000908152600260205260409081902090516394af7edd60e01b81527f0000000000000000000000000000000000000000000000000000000000000000909216916394af7edd916102b791339187916004016111bf565b600060405180830381600087803b1580156102d157600080fd5b505af11580156102e5573d6000803e3d6000fd5b505050505050565b600060608060008060006060610301610713565b610309610745565b60408051600080825260208201909252600f60f81b9b939a50919850469750309650945092509050565b336001600160a01b037f0000000000000000000000000000000000000000000000000000000000000000161461037e576040516307b2a09360e41b815233600482015260240161016e565b60028210156103a45782826040516331b7bffd60e11b815260040161016e929190611280565b600083836040516103b69291906112af565b604080519182900390912060008181526003602052919091205490915060ff16156103f8578383604051631c3da30760e21b815260040161016e929190611280565b6001600160a01b03828116600090815260026020526040902060010154161561043f576040516324e3503d60e11b81526001600160a01b038316600482015260240161016e565b6001600160a01b03821660008181526002602052604090206001810180546001600160a01b0319169092179091558061047985878361130e565b5060008281526003602052604090819020805460ff19166001179055516001600160a01b038416907f3980e1c29ecf2bdfce4e2793ed6efcc338cb00238d58c95de9000480acc0caef906104d09088908890611280565b60405180910390a25050505050565b6000807f0000000000000000000000000000000000000000000000000000000000000000846000015180519060200120856020015180519060200120866040015180519060200120876060015188608001518960a00151604051602001610580979695949392919096875260208701959095526040860193909352606085019190915260808401526001600160a01b031660a083015260c082015260e00190565b60405160208183030381529060405280519060200120905060006105a382610772565b905060006105b1828661079f565b60808701516001600160a01b0390811660009081526002602052604090206001015491925016610605576080860151604051630c058aa360e31b81526001600160a01b03909116600482015260240161016e565b85608001516001600160a01b0316816001600160a01b03161461063b57604051631468054760e31b815260040160405180910390fd5b600193505050505b92915050565b60006060600061065985856104df565b60808601516001600160a01b03166000908152600260205260409020805491925082918190610687906110a6565b80601f01602080910402602001604051908101604052809291908181526020018280546106b3906110a6565b80156107005780601f106106d557610100808354040283529160200191610700565b820191906000526020600020905b8154815290600101906020018083116106e357829003601f168201915b5050505050905092509250509250929050565b60606107407f000000000000000000000000000000000000000000000000000000000000000060006107c9565b905090565b60606107407f000000000000000000000000000000000000000000000000000000000000000060016107c9565b600061064361077f610874565b8360405161190160f01b8152600281019290925260228201526042902090565b6000806000806107af868661099f565b9250925092506107bf82826109ec565b5090949350505050565b606060ff83146107e3576107dc83610aa9565b9050610643565b8180546107ef906110a6565b80601f016020809104026020016040519081016040528092919081815260200182805461081b906110a6565b80156108685780601f1061083d57610100808354040283529160200191610868565b820191906000526020600020905b81548152906001019060200180831161084b57829003601f168201915b50505050509050610643565b6000306001600160a01b037f0000000000000000000000000000000000000000000000000000000000000000161480156108cd57507f000000000000000000000000000000000000000000000000000000000000000046145b156108f757507f000000000000000000000000000000000000000000000000000000000000000090565b610740604080517f8b73c3c69bb8fe3d512ecc4cf759cc79239f7b179b0ffacaa9a75d522b39400f60208201527f0000000000000000000000000000000000000000000000000000000000000000918101919091527f000000000000000000000000000000000000000000000000000000000000000060608201524660808201523060a082015260009060c00160405160208183030381529060405280519060200120905090565b600080600083516041036109d95760208401516040850151606086015160001a6109cb88828585610ae8565b9550955095505050506109e5565b50508151600091506002905b9250925092565b6000826003811115610a0057610a006113cd565b03610a09575050565b6001826003811115610a1d57610a1d6113cd565b03610a3b5760405163f645eedf60e01b815260040160405180910390fd5b6002826003811115610a4f57610a4f6113cd565b03610a705760405163fce698f760e01b81526004810182905260240161016e565b6003826003811115610a8457610a846113cd565b03610aa5576040516335e2f38360e21b81526004810182905260240161016e565b5050565b60606000610ab683610bb7565b604080516020808252818301909252919250600091906020820181803683375050509182525060208101929092525090565b600080807f7fffffffffffffffffffffffffffffff5d576e7357a4501ddfe92f46681b20a0841115610b235750600091506003905082610bad565b604080516000808252602082018084528a905260ff891692820192909252606081018790526080810186905260019060a0016020604051602081039080840390855afa158015610b77573d6000803e3d6000fd5b5050604051601f1901519150506001600160a01b038116610ba357506000925060019150829050610bad565b9250600091508190505b9450945094915050565b600060ff8216601f81111561064357604051632cd44ac360e21b815260040160405180910390fd5b80356001600160a01b0381168114610bf657600080fd5b919050565b600060208284031215610c0d57600080fd5b610c1682610bdf565b9392505050565b6000815180845260005b81811015610c4357602081850181015186830182015201610c27565b506000602082860101526020601f19601f83011685010191505092915050565b602081526000825160406020840152610c7f6060840182610c1d565b602094909401516001600160a01b0316604093909301929092525090919050565b634e487b7160e01b600052604160045260246000fd5b60405160e081016001600160401b0381118282101715610cd857610cd8610ca0565b60405290565b604051601f8201601f191681016001600160401b0381118282101715610d0657610d06610ca0565b604052919050565b600082601f830112610d1f57600080fd5b8135602083016000806001600160401b03841115610d3f57610d3f610ca0565b50601f8301601f1916602001610d5481610cde565b915050828152858383011115610d6957600080fd5b82826020830137600092810160200192909252509392505050565b600082601f830112610d9557600080fd5b81356001600160401b03811115610dae57610dae610ca0565b8060051b610dbe60208201610cde565b91825260208185018101929081019086841115610dda57600080fd5b6020860192505b83831015610e205782356001600160401b03811115610dff57600080fd5b610e0e886020838a0101610d0e565b83525060209283019290910190610de1565b9695505050505050565b60008060408385031215610e3d57600080fd5b82356001600160401b03811115610e5357600080fd5b830160e08186031215610e6557600080fd5b610e6d610cb6565b81356001600160401b03811115610e8357600080fd5b610e8f87828501610d0e565b82525060208201356001600160401b03811115610eab57600080fd5b610eb787828501610d0e565b60208301525060408201356001600160401b03811115610ed657600080fd5b610ee287828501610d0e565b60408301525060608281013590820152610efe60808301610bdf565b608082015260a0828101359082015260c08201356001600160401b03811115610f2657600080fd5b610f3287828501610d84565b60c08301525092505060208301356001600160401b03811115610f5457600080fd5b610f6085828601610d0e565b9150509250929050565b60ff60f81b8816815260e060208201526000610f8960e0830189610c1d565b8281036040840152610f9b8189610c1d565b606084018890526001600160a01b038716608085015260a0840186905283810360c08501528451808252602080870193509091019060005b81811015610ff1578351835260209384019390920191600101610fd3565b50909b9a5050505050505050505050565b60008060006040848603121561101757600080fd5b83356001600160401b0381111561102d57600080fd5b8401601f8101861361103e57600080fd5b80356001600160401b0381111561105457600080fd5b86602082840101111561106657600080fd5b60209182019450925061107a908501610bdf565b90509250925092565b821515815260406020820152600061109e6040830184610c1d565b949350505050565b600181811c908216806110ba57607f821691505b6020821081036110da57634e487b7160e01b600052602260045260246000fd5b50919050565b600082825180855260208501945060208160051b8301016020850160005b8381101561113057601f1985840301885261111a838351610c1d565b60209889019890935091909101906001016110fe565b50909695505050505050565b60008154611149816110a6565b808552600182168015611163576001811461117f576111b6565b60ff1983166020870152602082151560051b87010193506111b6565b84600052602060002060005b838110156111ad5781546020828a01015260018201915060208101905061118b565b87016020019450505b50505092915050565b60018060a01b0384168152606060208201526000835160e060608401526111ea610140840182610c1d565b90506020850151605f198483030160808501526112078282610c1d565b9150506040850151605f198483030160a08501526112258282610c1d565b915050606085015160c084015260018060a01b0360808601511660e084015260a085015161010084015260c0850151605f198483030161012085015261126b82826110e0565b9150508281036040840152610e20818561113c565b60208152816020820152818360408301376000818301604090810191909152601f909201601f19160101919050565b8183823760009101908152919050565b601f82111561130957806000526020600020601f840160051c810160208510156112e65750805b601f840160051c820191505b8181101561130657600081556001016112f2565b50505b505050565b6001600160401b0383111561132557611325610ca0565b6113398361133383546110a6565b836112bf565b6000601f84116001811461136d57600085156113555750838201355b600019600387901b1c1916600186901b178355611306565b600083815260209020601f19861690835b8281101561139e578685013582556020948501946001909201910161137e565b50868210156113bb5760001960f88860031b161c19848701351681555b505060018560011b0183555050505050565b634e487b7160e01b600052602160045260246000fdfea264697066735822122029afef62bd4a222f25601fb9b79f57306868e06ecd6d931aa3a208c34d2eddc264736f6c634300081d0033",
  "devdoc": {
    "errors": {
      "ECDSAInvalidSignature()": [
        {
          "details": "The signature derives the `address(0)`."
        }
      ],
      "ECDSAInvalidSignatureLength(uint256)": [
        {
          "details": "The signature has an invalid length."
        }
      ],
      "ECDSAInvalidSignatureS(bytes32)": [
        {
          "details": "The signature has an S value that is in the upper half order."
        }
      ]
    },
    "events": {
      "EIP712DomainChanged()": {
        "details": "MAY be emitted to signal that the domain could have changed."
      }
    },
    "kind": "dev",
    "methods": {
      "eip712Domain()": {
        "details": "See {IERC-5267}."
      }
    },
    "version": 1
  },
  "userdoc": {
    "kind": "user",
    "methods": {},
    "version": 1
  },
  "storageLayout": {
    "storage": [
      {
        "astId": 991,
        "contract": "contracts/TrueAuthenticity.sol:TrueAuthenticity",
        "label": "_nameFallback",
        "offset": 0,
        "slot": "0",
        "type": "t_string_storage"
      },
      {
        "astId": 993,
        "contract": "contracts/TrueAuthenticity.sol:TrueAuthenticity",
        "label": "_versionFallback",
        "offset": 0,
        "slot": "1",
        "type": "t_string_storage"
      },
      {
        "astId": 2543,
        "contract": "contracts/TrueAuthenticity.sol:TrueAuthenticity",
        "label": "manufacturers",
        "offset": 0,
        "slot": "2",
        "type": "t_mapping(t_address,t_struct(Manufacturer)2468_storage)"
      },
      {
        "astId": 2547,
        "contract": "contracts/TrueAuthenticity.sol:TrueAuthenticity",
        "label": "isExist",
        "offset": 0,
        "slot": "3",
        "type": "t_mapping(t_bytes32,t_bool)"
      }
    ],
    "types": {
      "t_address": {
        "encoding": "inplace",
        "label": "address",
        "numberOfBytes": "20"
      },
      "t_bool": {
        "encoding": "inplace",
        "label": "bool",
        "numberOfBytes": "1"
      },
      "t_bytes32": {
        "encoding": "inplace",
        "label": "bytes32",
        "numberOfBytes": "32"
      },
      "t_mapping(t_address,t_struct(Manufacturer)2468_storage)": {
        "encoding": "mapping",
        "key": "t_address",
        "label": "mapping(address => struct ITrue.Manufacturer)",
        "numberOfBytes": "32",
        "value": "t_struct(Manufacturer)2468_storage"
      },
      "t_mapping(t_bytes32,t_bool)": {
        "encoding": "mapping",
        "key": "t_bytes32",
        "label": "mapping(bytes32 => bool)",
        "numberOfBytes": "32",
        "value": "t_bool"
      },
      "t_string_storage": {
        "encoding": "bytes",
        "label": "string",
        "numberOfBytes": "32"
      },
      "t_struct(Manufacturer)2468_storage": {
        "encoding": "inplace",
        "label": "struct ITrue.Manufacturer",
        "members": [
          {
            "astId": 2465,
            "contract": "contracts/TrueAuthenticity.sol:TrueAuthenticity",
            "label": "name",
            "offset": 0,
            "slot": "0",
            "type": "t_string_storage"
          },
          {
            "astId": 2467,
            "contract": "contracts/TrueAuthenticity.sol:TrueAuthenticity",
            "label": "manufacturerAddress",
            "offset": 0,
            "slot": "1",
            "type": "t_address"
          }
        ],
        "numberOfBytes": "64"
      }
    }
  }
}